S00C00006D61696E2E7372656373
S113000009C016C015C014C013C012C011C010C05E
S11300100FC00EC011241FBECFE9CDBF20E0A0E663
S1130020B0E001C01D92A936B207E1F702D0F1C0D9
S1130030E7CF87B3816087BB88B3806188BB88B30F
S1130040826088BB88B3846088BB83B7816083BFC8
S11300508FB583608FBD8FB580688FBD8FEF86BFEE
S113006080E090E0C2D0C82F8093650081E090E0EA
S1130070BCD080936600C150C23818F092E89093C7
S113008065008150823818F082E38093660086B35D
S1130090982F92959F7081E08927817080936300E7
S11300A0882359F0809166008093640081E090E099
S11300B0909368008093670008C0809165008093E6
S11300C0640010926800109267008091640086BFFB
S11300D096B326B3969581E0982726952695822790
S11300E08170892391E02091600030916100283E65
S11300F0334008F090E0882359F0992349F081E0D7
S1130100809362008FE59AEE0197F1F700C000003A
S113011096B326B3969581E09827917026952695F7
S113012082278170892B90916200882391F1992311
S113013081F18FE697E10197F1F700C00000B199D2
S11301400BC0809164008B5F809364008FE59AEE0E
S11301500197F1F700C00000B2990DC080916400CE
S1130160863018F08550809364008FE59AEE0197ED
S1130170F1F700C0000080916400833818F082E831
S1130180809364006091640080916700909168009E
S113019033D08091640086BF80916200811198CF32
S11301A08091600090916100883E23E0920760F4A2
S11301B00196909361008093600087EB9BE0019728
S11301C0F1F700C0000084CF80916400833318F0FD
S11301D08150809364009FEB24ED41E091502040D6
S11301E04040E1F700C0000073CFE199FECF8EBB21
S11301F0E09A99278DB30895262FE199FECF1CBA72
S11302008EBB2DBB0FB6F894E29AE19A0FBE01960D
S10902100895F894FFCFED
S9030000FC
